{"abi":[{"type":"constructor","inputs":[{"name":"_treasury","type":"address","internalType":"address"}],"stateMutability":"nonpayable"},{"type":"function","name":"BPS_DENOMINATOR","inputs":[],"outputs":[{"name":"","type":"uint256","internalType":"uint256"}],"stateMutability":"view"},{"type":"function","name":"PROTOCOL_FEE_BPS","inputs":[],"outputs":[{"name":"","type":"uint256","internalType":"uint256"}],"stateMutability":"view"},{"type":"function","name":"deposit","inputs":[{"name":"intentId","type":"bytes32","internalType":"bytes32"},{"name":"solver","type":"address","internalType":"address"},{"name":"deadline","type":"uint256","internalType":"uint256"}],"outputs":[],"stateMutability":"payable"},{"type":"function","name":"escrows","inputs":[{"name":"","type":"bytes32","internalType":"bytes32"}],"outputs":[{"name":"user","type":"address","internalType":"address"},{"name":"solver","type":"address","internalType":"address"},{"name":"totalAmount","type":"uint256","internalType":"uint256"},{"name":"lockedAmount","type":"uint256","internalType":"uint256"},{"name":"feeAmount","type":"uint256","internalType":"uint256"},{"name":"deadline","type":"uint256","internalType":"uint256"},{"name":"status","type":"uint8","internalType":"enum EscrowSettlement.Status"},{"name":"proofHash","type":"bytes32","internalType":"bytes32"}],"stateMutability":"view"},{"type":"function","name":"refund","inputs":[{"name":"intentId","type":"bytes32","internalType":"bytes32"}],"outputs":[],"stateMutability":"nonpayable"},{"type":"function","name":"slash","inputs":[{"name":"intentId","type":"bytes32","internalType":"bytes32"}],"outputs":[],"stateMutability":"nonpayable"},{"type":"function","name":"treasury","inputs":[],"outputs":[{"name":"","type":"address","internalType":"address"}],"stateMutability":"view"},{"type":"function","name":"verifyProof","inputs":[{"name":"intentId","type":"bytes32","internalType":"bytes32"},{"name":"proofHash","type":"bytes32","internalType":"bytes32"}],"outputs":[],"stateMutability":"nonpayable"},{"type":"event","name":"Deposited","inputs":[{"name":"intentId","type":"bytes32","indexed":true,"internalType":"bytes32"},{"name":"user","type":"address","indexed":false,"internalType":"address"},{"name":"solver","type":"address","indexed":false,"internalType":"address"},{"name":"total","type":"uint256","indexed":false,"internalType":"uint256"},{"name":"fee","type":"uint256","indexed":false,"internalType":"uint256"}],"anonymous":false},{"type":"event","name":"Fulfilled","inputs":[{"name":"intentId","type":"bytes32","indexed":true,"internalType":"bytes32"},{"name":"proofHash","type":"bytes32","indexed":false,"internalType":"bytes32"}],"anonymous":false},{"type":"event","name":"Refunded","inputs":[{"name":"intentId","type":"bytes32","indexed":true,"internalType":"bytes32"},{"name":"user","type":"address","indexed":false,"internalType":"address"}],"anonymous":false},{"type":"event","name":"Slashed","inputs":[{"name":"intentId","type":"bytes32","indexed":true,"internalType":"bytes32"},{"name":"solver","type":"address","indexed":false,"internalType":"address"}],"anonymous":false}],"bytecode":{"object":"0x608060405234801561000f575f5ffd5b506040516114f33803806114f3833981810160405281019061003191906100d4565b805f5f6101000a81548173ffffffffffffffffffffffffffffffffffffffff021916908373ffffffffffffffffffffffffffffffffffffffff160217905550506100ff565b5f5ffd5b5f73ffffffffffffffffffffffffffffffffffffffff82169050919050565b5f6100a38261007a565b9050919050565b6100b381610099565b81146100bd575f5ffd5b50565b5f815190506100ce816100aa565b92915050565b5f602082840312156100e9576100e8610076565b5b5f6100f6848285016100c0565b91505092915050565b6113e78061010c5f395ff3fe60806040526004361061007a575f3560e01c8063be3782281161004d578063be3782281461013b578063d954863c14610165578063e1a4521814610181578063f415ed14146101ab5761007a565b80632d83549c1461007e57806361d027b3146100c15780637249fbb6146100eb578063739808e514610113575b5f5ffd5b348015610089575f5ffd5b506100a4600480360381019061009f9190610c32565b6101d3565b6040516100b8989796959493929190610d36565b60405180910390f35b3480156100cc575f5ffd5b506100d5610261565b6040516100e29190610db2565b60405180910390f35b3480156100f6575f5ffd5b50610111600480360381019061010c9190610c32565b610285565b005b34801561011e575f5ffd5b5061013960048036038101906101349190610dcb565b610468565b005b348015610146575f5ffd5b5061014f61067b565b60405161015c9190610e09565b60405180910390f35b61017f600480360381019061017a9190610e76565b610680565b005b34801561018c575f5ffd5b506101956109cb565b6040516101a29190610e09565b60405180910390f35b3480156101b6575f5ffd5b506101d160048036038101906101cc9190610c32565b6109d1565b005b6001602052805f5260405f205f91509050805f015f9054906101000a900473ffffffffffffffffffffffffffffffffffffffff1690806001015f9054906101000a900473ffffffffffffffffffffffffffffffffffffffff1690806002015490806003015490806004015490806005015490806006015f9054906101000a900460ff16908060070154905088565b5f5f9054906101000a900473ffffffffffffffffffffffffffffffffffffffff1681565b5f60015f8381526020019081526020015f2090505f60038111156102ac576102ab610cb4565b5b816006015f9054906101000a900460ff1660038111156102cf576102ce610cb4565b5b1461030f576040517f08c379a000000000000000000000000000000000000000000000000000000000815260040161030690610f20565b60405180910390fd5b6003816006015f6101000a81548160ff0219169083600381111561033657610335610cb4565b5b02179055505f815f015f9054906101000a900473ffffffffffffffffffffffffffffffffffffffff1673ffffffffffffffffffffffffffffffffffffffff16826003015460405161038690610f6b565b5f6040518083038185875af1925050503d805f81146103c0576040519150601f19603f3d011682016040523d82523d5f602084013e6103c5565b606091505b5050905080610409576040517f08c379a000000000000000000000000000000000000000000000000000000000815260040161040090610fc9565b60405180910390fd5b827f5e9f0820fcfb53b644becb775b651bae68c337106f21433e526551d1e02c1c0e835f015f9054906101000a900473ffffffffffffffffffffffffffffffffffffffff1660405161045b9190610db2565b60405180910390a2505050565b5f60015f8481526020019081526020015f2090505f600381111561048f5761048e610cb4565b5b816006015f9054906101000a900460ff1660038111156104b2576104b1610cb4565b5b146104f2576040517f08c379a00000000000000000000000000000000000000000000000000000000081526004016104e990610f20565b60405180910390fd5b8060050154421115610539576040517f08c379a000000000000000000000000000000000000000000000000000000000815260040161053090611031565b60405180910390fd5b6001816006015f6101000a81548160ff021916908360038111156105605761055f610cb4565b5b02179055508181600701819055505f816001015f9054906101000a900473ffffffffffffffffffffffffffffffffffffffff1673ffffffffffffffffffffffffffffffffffffffff1682600301546040516105ba90610f6b565b5f6040518083038185875af1925050503d805f81146105f4576040519150601f19603f3d011682016040523d82523d5f602084013e6105f9565b606091505b505090508061063d576040517f08c379a000000000000000000000000000000000000000000000000000000000815260040161063490611099565b60405180910390fd5b837f9c3b22a7d0e049918b380e53b14f16763a7e313a00ebe397c4f8327f581aec938460405161066d91906110b7565b60405180910390a250505050565b600a81565b5f34116106c2576040517f08c379a00000000000000000000000000000000000000000000000000000000081526004016106b99061111a565b60405180910390fd5b5f60015f8581526020019081526020015f206002015414610718576040517f08c379a000000000000000000000000000000000000000000000000000000000815260040161070f90611182565b60405180910390fd5b5f612710600a3461072991906111cd565b610733919061123b565b90505f8134610742919061126b565b90505f5f5f9054906101000a900473ffffffffffffffffffffffffffffffffffffffff1673ffffffffffffffffffffffffffffffffffffffff168360405161078990610f6b565b5f6040518083038185875af1925050503d805f81146107c3576040519150601f19603f3d011682016040523d82523d5f602084013e6107c8565b606091505b505090508061080c576040517f08c379a0000000000000000000000000000000000000000000000000000000008152600401610803906112e8565b60405180910390fd5b6040518061010001604052803373ffffffffffffffffffffffffffffffffffffffff1681526020018673ffffffffffffffffffffffffffffffffffffffff1681526020013481526020018381526020018481526020018581526020015f600381111561087b5761087a610cb4565b5b81526020015f5f1b81525060015f8881526020019081526020015f205f820151815f015f6101000a81548173ffffffffffffffffffffffffffffffffffffffff021916908373ffffffffffffffffffffffffffffffffffffffff1602179055506020820151816001015f6101000a81548173ffffffffffffffffffffffffffffffffffffffff021916908373ffffffffffffffffffffffffffffffffffffffff16021790555060408201518160020155606082015181600301556080820151816004015560a0820151816005015560c0820151816006015f6101000a81548160ff0219169083600381111561097357610972610cb4565b5b021790555060e08201518160070155905050857fe3ad398758b9cbdf4196c5d060a1aebae967b4f9115c7394e937cbb46f449587338734876040516109bb9493929190611306565b60405180910390a2505050505050565b61271081565b5f60015f8381526020019081526020015f2090505f60038111156109f8576109f7610cb4565b5b816006015f9054906101000a900460ff166003811115610a1b57610a1a610cb4565b5b14610a5b576040517f08c379a0000000000000000000000000000000000000000000000000000000008152600401610a5290610f20565b60405180910390fd5b80600501544211610aa1576040517f08c379a0000000000000000000000000000000000000000000000000000000008152600401610a9890611393565b60405180910390fd5b6002816006015f6101000a81548160ff02191690836003811115610ac857610ac7610cb4565b5b02179055505f815f015f9054906101000a900473ffffffffffffffffffffffffffffffffffffffff1673ffffffffffffffffffffffffffffffffffffffff168260030154604051610b1890610f6b565b5f6040518083038185875af1925050503d805f8114610b52576040519150601f19603f3d011682016040523d82523d5f602084013e610b57565b606091505b5050905080610b9b576040517f08c379a0000000000000000000000000000000000000000000000000000000008152600401610b9290610fc9565b60405180910390fd5b827fe7b6a696a90d11301e2221b5ea5c0b38e2639c314617e1881f99491956c6fdac836001015f9054906101000a900473ffffffffffffffffffffffffffffffffffffffff16604051610bee9190610db2565b60405180910390a2505050565b5f5ffd5b5f819050919050565b610c1181610bff565b8114610c1b575f5ffd5b50565b5f81359050610c2c81610c08565b92915050565b5f60208284031215610c4757610c46610bfb565b5b5f610c5484828501610c1e565b91505092915050565b5f73ffffffffffffffffffffffffffffffffffffffff82169050919050565b5f610c8682610c5d565b9050919050565b610c9681610c7c565b82525050565b5f819050919050565b610cae81610c9c565b82525050565b7f4e487b71000000000000000000000000000000000000000000000000000000005f52602160045260245ffd5b60048110610cf257610cf1610cb4565b5b50565b5f819050610d0282610ce1565b919050565b5f610d1182610cf5565b9050919050565b610d2181610d07565b82525050565b610d3081610bff565b82525050565b5f61010082019050610d4a5f83018b610c8d565b610d57602083018a610c8d565b610d646040830189610ca5565b610d716060830188610ca5565b610d7e6080830187610ca5565b610d8b60a0830186610ca5565b610d9860c0830185610d18565b610da560e0830184610d27565b9998505050505050505050565b5f602082019050610dc55f830184610c8d565b92915050565b5f5f60408385031215610de157610de0610bfb565b5b5f610dee85828601610c1e565b9250506020610dff85828601610c1e565b9150509250929050565b5f602082019050610e1c5f830184610ca5565b92915050565b610e2b81610c7c565b8114610e35575f5ffd5b50565b5f81359050610e4681610e22565b92915050565b610e5581610c9c565b8114610e5f575f5ffd5b50565b5f81359050610e7081610e4c565b92915050565b5f5f5f60608486031215610e8d57610e8c610bfb565b5b5f610e9a86828701610c1e565b9350506020610eab86828701610e38565b9250506040610ebc86828701610e62565b9150509250925092565b5f82825260208201905092915050565b7f4e6f742070656e64696e670000000000000000000000000000000000000000005f82015250565b5f610f0a600b83610ec6565b9150610f1582610ed6565b602082019050919050565b5f6020820190508181035f830152610f3781610efe565b9050919050565b5f81905092915050565b50565b5f610f565f83610f3e565b9150610f6182610f48565b5f82019050919050565b5f610f7582610f4b565b9150819050919050565b7f526566756e64206661696c6564000000000000000000000000000000000000005f82015250565b5f610fb3600d83610ec6565b9150610fbe82610f7f565b602082019050919050565b5f6020820190508181035f830152610fe081610fa7565b9050919050565b7f45787069726564000000000000000000000000000000000000000000000000005f82015250565b5f61101b600783610ec6565b915061102682610fe7565b602082019050919050565b5f6020820190508181035f8301526110488161100f565b9050919050565b7f536f6c76657220706179206661696c65640000000000000000000000000000005f82015250565b5f611083601183610ec6565b915061108e8261104f565b602082019050919050565b5f6020820190508181035f8301526110b081611077565b9050919050565b5f6020820190506110ca5f830184610d27565b92915050565b7f4e6f2076616c75650000000000000000000000000000000000000000000000005f82015250565b5f611104600883610ec6565b915061110f826110d0565b602082019050919050565b5f6020820190508181035f830152611131816110f8565b9050919050565b7f496e74656e7420657869737473000000000000000000000000000000000000005f82015250565b5f61116c600d83610ec6565b915061117782611138565b602082019050919050565b5f6020820190508181035f83015261119981611160565b9050919050565b7f4e487b71000000000000000000000000000000000000000000000000000000005f52601160045260245ffd5b5f6111d782610c9c565b91506111e283610c9c565b92508282026111f081610c9c565b91508282048414831517611207576112066111a0565b5b5092915050565b7f4e487b71000000000000000000000000000000000000000000000000000000005f52601260045260245ffd5b5f61124582610c9c565b915061125083610c9c565b9250826112605761125f61120e565b5b828204905092915050565b5f61127582610c9c565b915061128083610c9c565b9250828203905081811115611298576112976111a0565b5b92915050565b7f466565207472616e73666572206661696c6564000000000000000000000000005f82015250565b5f6112d2601383610ec6565b91506112dd8261129e565b602082019050919050565b5f6020820190508181035f8301526112ff816112c6565b9050919050565b5f6080820190506113195f830187610c8d565b6113266020830186610c8d565b6113336040830185610ca5565b6113406060830184610ca5565b95945050505050565b7f4e6f7420657870697265640000000000000000000000000000000000000000005f82015250565b5f61137d600b83610ec6565b915061138882611349565b602082019050919050565b5f6020820190508181035f8301526113aa81611371565b905091905056fea2646970667358221220e69d21664008d0e651a52a68a136430915dae3a3441ba29353e87c75c23401eb64736f6c63430008210033","linkReferences":{}},"methodIdentifiers":{"BPS_DENOMINATOR()":"e1a45218","PROTOCOL_FEE_BPS()":"be378228","deposit(bytes32,address,uint256)":"d954863c","escrows(bytes32)":"2d83549c","refund(bytes32)":"7249fbb6","slash(bytes32)":"f415ed14","treasury()":"61d027b3","verifyProof(bytes32,bytes32)":"739808e5"},"id":0}