{"abi":[{"type":"function","name":"agentCount","inputs":[],"outputs":[{"name":"","type":"uint256","internalType":"uint256"}],"stateMutability":"view"},{"type":"function","name":"identities","inputs":[{"name":"","type":"address","internalType":"address"}],"outputs":[{"name":"","type":"string","internalType":"string"}],"stateMutability":"view"},{"type":"function","name":"register","inputs":[{"name":"_name","type":"string","internalType":"string"}],"outputs":[],"stateMutability":"nonpayable"},{"type":"function","name":"reputation","inputs":[{"name":"","type":"address","internalType":"address"}],"outputs":[{"name":"","type":"uint256","internalType":"uint256"}],"stateMutability":"view"},{"type":"function","name":"totalAgents","inputs":[],"outputs":[{"name":"","type":"uint256","internalType":"uint256"}],"stateMutability":"view"},{"type":"event","name":"AgentRegistered","inputs":[{"name":"agent","type":"address","indexed":true,"internalType":"address"},{"name":"name","type":"string","indexed":false,"internalType":"string"},{"name":"timestamp","type":"uint256","indexed":false,"internalType":"uint256"}],"anonymous":false}],"bytecode":{"object":"0x6080604052348015600e575f5ffd5b506109dd8061001c5f395ff3fe608060405234801561000f575f5ffd5b5060043610610055575f3560e01c8063b7dc128414610059578063b9f7945114610077578063c5053712146100a7578063f2c298be146100c5578063f653b81e146100e1575b5f5ffd5b610061610111565b60405161006e919061036d565b60405180910390f35b610091600480360381019061008c91906103e8565b61011a565b60405161009e919061036d565b60405180910390f35b6100af61012f565b6040516100bc919061036d565b60405180910390f35b6100df60048036038101906100da9190610474565b610135565b005b6100fb60048036038101906100f691906103e8565b6102bb565b604051610108919061052f565b60405180910390f35b5f600254905090565b6001602052805f5260405f205f915090505481565b60025481565b5f5f5f3373ffffffffffffffffffffffffffffffffffffffff1673ffffffffffffffffffffffffffffffffffffffff1681526020019081526020015f20805461017d9061057c565b9050146101bf576040517f08c379a00000000000000000000000000000000000000000000000000000000081526004016101b6906105f6565b60405180910390fd5b81815f5f3373ffffffffffffffffffffffffffffffffffffffff1673ffffffffffffffffffffffffffffffffffffffff1681526020019081526020015f20918261020a9291906107fc565b50606460015f3373ffffffffffffffffffffffffffffffffffffffff1673ffffffffffffffffffffffffffffffffffffffff1681526020019081526020015f208190555060025f815480929190610260906108f6565b91905055503373ffffffffffffffffffffffffffffffffffffffff167f023c5efe572c42192271951adb0e77f97d7fc84bc761d026189ac086173468248383426040516102af93929190610977565b60405180910390a25050565b5f602052805f5260405f205f9150905080546102d69061057c565b80601f01602080910402602001604051908101604052809291908181526020018280546103029061057c565b801561034d5780601f106103245761010080835404028352916020019161034d565b820191905f5260205f20905b81548152906001019060200180831161033057829003601f168201915b505050505081565b5f819050919050565b61036781610355565b82525050565b5f6020820190506103805f83018461035e565b92915050565b5f5ffd5b5f5ffd5b5f73ffffffffffffffffffffffffffffffffffffffff82169050919050565b5f6103b78261038e565b9050919050565b6103c7816103ad565b81146103d1575f5ffd5b50565b5f813590506103e2816103be565b92915050565b5f602082840312156103fd576103fc610386565b5b5f61040a848285016103d4565b91505092915050565b5f5ffd5b5f5ffd5b5f5ffd5b5f5f83601f84011261043457610433610413565b5b8235905067ffffffffffffffff81111561045157610450610417565b5b60208301915083600182028301111561046d5761046c61041b565b5b9250929050565b5f5f6020838503121561048a57610489610386565b5b5f83013567ffffffffffffffff8111156104a7576104a661038a565b5b6104b38582860161041f565b92509250509250929050565b5f81519050919050565b5f82825260208201905092915050565b8281835e5f83830152505050565b5f601f19601f8301169050919050565b5f610501826104bf565b61050b81856104c9565b935061051b8185602086016104d9565b610524816104e7565b840191505092915050565b5f6020820190508181035f83015261054781846104f7565b905092915050565b7f4e487b71000000000000000000000000000000000000000000000000000000005f52602260045260245ffd5b5f600282049050600182168061059357607f821691505b6020821081036105a6576105a561054f565b5b50919050565b7f416c7265616479207265676973746572656400000000000000000000000000005f82015250565b5f6105e06012836104c9565b91506105eb826105ac565b602082019050919050565b5f6020820190508181035f83015261060d816105d4565b9050919050565b5f82905092915050565b7f4e487b71000000000000000000000000000000000000000000000000000000005f52604160045260245ffd5b5f819050815f5260205f209050919050565b5f6020601f8301049050919050565b5f82821b905092915050565b5f600883026106a77fffffffffffffffffffffffffffffffffffffffffffffffffffffffffffffffff8261066c565b6106b1868361066c565b95508019841693508086168417925050509392505050565b5f819050919050565b5f6106ec6106e76106e284610355565b6106c9565b610355565b9050919050565b5f819050919050565b610705836106d2565b610719610711826106f3565b848454610678565b825550505050565b5f5f905090565b610730610721565b61073b8184846106fc565b505050565b5f5b82811015610761576107565f828401610728565b600181019050610742565b505050565b601f8211156107b457828211156107b3576107808161064b565b6107898361065d565b6107928561065d565b602086101561079f575f90505b8083016107ae82840382610740565b505050505b5b505050565b5f82821c905092915050565b5f6107d45f19846008026107b9565b1980831691505092915050565b5f6107ec83836107c5565b9150826002028217905092915050565b6108068383610614565b67ffffffffffffffff81111561081f5761081e61061e565b5b610829825461057c565b610834828285610766565b5f601f831160018114610861575f841561084f578287013590505b61085985826107e1565b8655506108c0565b601f19841661086f8661064b565b5f5b8281101561089657848901358255600182019150602085019450602081019050610871565b868310156108b357848901356108af601f8916826107c5565b8355505b6001600288020188555050505b50505050505050565b7f4e487b71000000000000000000000000000000000000000000000000000000005f52601160045260245ffd5b5f61090082610355565b91507fffffffffffffffffffffffffffffffffffffffffffffffffffffffffffffffff8203610932576109316108c9565b5b600182019050919050565b828183375f83830152505050565b5f61095683856104c9565b935061096383858461093d565b61096c836104e7565b840190509392505050565b5f6040820190508181035f83015261099081858761094b565b905061099f602083018461035e565b94935050505056fea2646970667358221220fff97414784c7725c1380e04d78192cf7feef0c6a424f5e4b00adac522b3a79964736f6c63430008210033","linkReferences":{}},"methodIdentifiers":{"agentCount()":"b7dc1284","identities(address)":"f653b81e","register(string)":"f2c298be","reputation(address)":"b9f79451","totalAgents()":"c5053712"},"id":0}