{"abi":[{"type":"function","name":"getAllActiveSolvers","inputs":[],"outputs":[{"name":"","type":"address[]","internalType":"address[]"},{"name":"","type":"tuple[]","internalType":"struct SolverRegistry.Solver[]","components":[{"name":"endpoint","type":"string","internalType":"string"},{"name":"capabilities","type":"string[]","internalType":"string[]"},{"name":"reputation","type":"uint256","internalType":"uint256"},{"name":"active","type":"bool","internalType":"bool"}]}],"stateMutability":"view"},{"type":"function","name":"getSolver","inputs":[{"name":"_solver","type":"address","internalType":"address"}],"outputs":[{"name":"","type":"tuple","internalType":"struct SolverRegistry.Solver","components":[{"name":"endpoint","type":"string","internalType":"string"},{"name":"capabilities","type":"string[]","internalType":"string[]"},{"name":"reputation","type":"uint256","internalType":"uint256"},{"name":"active","type":"bool","internalType":"bool"}]}],"stateMutability":"view"},{"type":"function","name":"register","inputs":[{"name":"_endpoint","type":"string","internalType":"string"},{"name":"_capabilities","type":"string[]","internalType":"string[]"}],"outputs":[],"stateMutability":"nonpayable"},{"type":"function","name":"setActive","inputs":[{"name":"_solver","type":"address","internalType":"address"},{"name":"_active","type":"bool","internalType":"bool"}],"outputs":[],"stateMutability":"nonpayable"},{"type":"function","name":"solverAddresses","inputs":[{"name":"","type":"uint256","internalType":"uint256"}],"outputs":[{"name":"","type":"address","internalType":"address"}],"stateMutability":"view"},{"type":"function","name":"solvers","inputs":[{"name":"","type":"address","internalType":"address"}],"outputs":[{"name":"endpoint","type":"string","internalType":"string"},{"name":"reputation","type":"uint256","internalType":"uint256"},{"name":"active","type":"bool","internalType":"bool"}],"stateMutability":"view"},{"type":"function","name":"updateReputation","inputs":[{"name":"_solver","type":"address","internalType":"address"},{"name":"_newReputation","type":"uint256","internalType":"uint256"}],"outputs":[],"stateMutability":"nonpayable"},{"type":"event","name":"SolverRegistered","inputs":[{"name":"solver","type":"address","indexed":true,"internalType":"address"},{"name":"endpoint","type":"string","indexed":false,"internalType":"string"}],"anonymous":false},{"type":"event","name":"SolverUpdated","inputs":[{"name":"solver","type":"address","indexed":true,"internalType":"address"},{"name":"reputation","type":"uint256","indexed":false,"internalType":"uint256"},{"name":"active","type":"bool","indexed":false,"internalType":"bool"}],"anonymous":false}],"bytecode":{"object":"0x6080604052348015600e575f5ffd5b50611dd48061001c5f395ff3fe608060405234801561000f575f5ffd5b506004361061007b575f3560e01c8063525079c611610059578063525079c6146100ea57806357f58d981461011a578063aeeb40321461014c578063f5c91a08146101685761007b565b80631cf8e9511461007f5780632ce962cf146100af5780633daa7588146100cb575b5f5ffd5b61009960048036038101906100949190610d89565b610184565b6040516100a69190610f78565b60405180910390f35b6100c960048036038101906100c49190610fc2565b610361565b005b6100d361044a565b6040516100e19291906111d9565b60405180910390f35b61010460048036038101906100ff9190611238565b61092c565b6040516101119190611272565b60405180910390f35b610134600480360381019061012f9190610d89565b610967565b604051610143939291906112f1565b60405180910390f35b6101666004803603810190610161919061153b565b610a1e565b005b610182600480360381019061017d91906115b1565b610c13565b005b61018c610cf6565b5f5f8373ffffffffffffffffffffffffffffffffffffffff1673ffffffffffffffffffffffffffffffffffffffff1681526020019081526020015f206040518060800160405290815f820180546101e29061161c565b80601f016020809104026020016040519081016040528092919081815260200182805461020e9061161c565b80156102595780601f1061023057610100808354040283529160200191610259565b820191905f5260205f20905b81548152906001019060200180831161023c57829003601f168201915b5050505050815260200160018201805480602002602001604051908101604052809291908181526020015f905b8282101561032e578382905f5260205f200180546102a39061161c565b80601f01602080910402602001604051908101604052809291908181526020018280546102cf9061161c565b801561031a5780601f106102f15761010080835404028352916020019161031a565b820191905f5260205f20905b8154815290600101906020018083116102fd57829003601f168201915b505050505081526020019060010190610286565b50505050815260200160028201548152602001600382015f9054906101000a900460ff1615151515815250509050919050565b805f5f8473ffffffffffffffffffffffffffffffffffffffff1673ffffffffffffffffffffffffffffffffffffffff1681526020019081526020015f206003015f6101000a81548160ff0219169083151502179055508173ffffffffffffffffffffffffffffffffffffffff167f43669527d232bb154911b31a22fed9d8741c43434bad3c0eab179f21452e52945f5f8573ffffffffffffffffffffffffffffffffffffffff1673ffffffffffffffffffffffffffffffffffffffff1681526020019081526020015f20600201548360405161043e92919061164c565b60405180910390a25050565b6060805f5f90505f5f90505b60018054905081101561050b575f5f6001838154811061047957610478611673565b5b905f5260205f20015f9054906101000a900473ffffffffffffffffffffffffffffffffffffffff1673ffffffffffffffffffffffffffffffffffffffff1673ffffffffffffffffffffffffffffffffffffffff1681526020019081526020015f206003015f9054906101000a900460ff16156104fe5781806104fa906116cd565b9250505b8080600101915050610456565b505f8167ffffffffffffffff81111561052757610526611335565b5b6040519080825280602002602001820160405280156105555781602001602082028036833780820191505090505b5090505f8267ffffffffffffffff81111561057357610572611335565b5b6040519080825280602002602001820160405280156105ac57816020015b610599610cf6565b8152602001906001900390816105915790505b5090505f5f90505f5f90505b60018054905081101561091d575f5f600183815481106105db576105da611673565b5b905f5260205f20015f9054906101000a900473ffffffffffffffffffffffffffffffffffffffff1673ffffffffffffffffffffffffffffffffffffffff1673ffffffffffffffffffffffffffffffffffffffff1681526020019081526020015f206003015f9054906101000a900460ff1615610910576001818154811061066557610664611673565b5b905f5260205f20015f9054906101000a900473ffffffffffffffffffffffffffffffffffffffff168483815181106106a05761069f611673565b5b602002602001019073ffffffffffffffffffffffffffffffffffffffff16908173ffffffffffffffffffffffffffffffffffffffff16815250505f5f600183815481106106f0576106ef611673565b5b905f5260205f20015f9054906101000a900473ffffffffffffffffffffffffffffffffffffffff1673ffffffffffffffffffffffffffffffffffffffff1673ffffffffffffffffffffffffffffffffffffffff1681526020019081526020015f206040518060800160405290815f8201805461076b9061161c565b80601f01602080910402602001604051908101604052809291908181526020018280546107979061161c565b80156107e25780601f106107b9576101008083540402835291602001916107e2565b820191905f5260205f20905b8154815290600101906020018083116107c557829003601f168201915b5050505050815260200160018201805480602002602001604051908101604052809291908181526020015f905b828210156108b7578382905f5260205f2001805461082c9061161c565b80601f01602080910402602001604051908101604052809291908181526020018280546108589061161c565b80156108a35780601f1061087a576101008083540402835291602001916108a3565b820191905f5260205f20905b81548152906001019060200180831161088657829003601f168201915b50505050508152602001906001019061080f565b50505050815260200160028201548152602001600382015f9054906101000a900460ff1615151515815250508383815181106108f6576108f5611673565b5b6020026020010181905250818061090c906116cd565b9250505b80806001019150506105b8565b50828295509550505050509091565b6001818154811061093b575f80fd5b905f5260205f20015f915054906101000a900473ffffffffffffffffffffffffffffffffffffffff1681565b5f602052805f5260405f205f91509050805f0180546109859061161c565b80601f01602080910402602001604051908101604052809291908181526020018280546109b19061161c565b80156109fc5780601f106109d3576101008083540402835291602001916109fc565b820191905f5260205f20905b8154815290600101906020018083116109df57829003601f168201915b505050505090806002015490806003015f9054906101000a900460ff16905083565b5f5f3373ffffffffffffffffffffffffffffffffffffffff1673ffffffffffffffffffffffffffffffffffffffff1681526020019081526020015f206003015f9054906101000a900460ff1615610aaa576040517f08c379a0000000000000000000000000000000000000000000000000000000008152600401610aa19061175e565b60405180910390fd5b604051806080016040528083815260200182815260200160648152602001600115158152505f5f3373ffffffffffffffffffffffffffffffffffffffff1673ffffffffffffffffffffffffffffffffffffffff1681526020019081526020015f205f820151815f019081610b1e919061192d565b506020820151816001019081610b349190611d1c565b50604082015181600201556060820151816003015f6101000a81548160ff021916908315150217905550905050600133908060018154018082558091505060019003905f5260205f20015f9091909190916101000a81548173ffffffffffffffffffffffffffffffffffffffff021916908373ffffffffffffffffffffffffffffffffffffffff1602179055503373ffffffffffffffffffffffffffffffffffffffff167f09de94227e0bc4072be06fe652f6d3d9d35c1617fbaab86c907ef95223f8564183604051610c079190611d7e565b60405180910390a25050565b805f5f8473ffffffffffffffffffffffffffffffffffffffff1673ffffffffffffffffffffffffffffffffffffffff1681526020019081526020015f20600201819055508173ffffffffffffffffffffffffffffffffffffffff167f43669527d232bb154911b31a22fed9d8741c43434bad3c0eab179f21452e5294825f5f8673ffffffffffffffffffffffffffffffffffffffff1673ffffffffffffffffffffffffffffffffffffffff1681526020019081526020015f206003015f9054906101000a900460ff16604051610cea92919061164c565b60405180910390a25050565b604051806080016040528060608152602001606081526020015f81526020015f151581525090565b5f604051905090565b5f5ffd5b5f5ffd5b5f73ffffffffffffffffffffffffffffffffffffffff82169050919050565b5f610d5882610d2f565b9050919050565b610d6881610d4e565b8114610d72575f5ffd5b50565b5f81359050610d8381610d5f565b92915050565b5f60208284031215610d9e57610d9d610d27565b5b5f610dab84828501610d75565b91505092915050565b5f81519050919050565b5f82825260208201905092915050565b8281835e5f83830152505050565b5f601f19601f8301169050919050565b5f610df682610db4565b610e008185610dbe565b9350610e10818560208601610dce565b610e1981610ddc565b840191505092915050565b5f81519050919050565b5f82825260208201905092915050565b5f819050602082019050919050565b5f610e588383610dec565b905092915050565b5f602082019050919050565b5f610e7682610e24565b610e808185610e2e565b935083602082028501610e9285610e3e565b805f5b85811015610ecd5784840389528151610eae8582610e4d565b9450610eb983610e60565b925060208a01995050600181019050610e95565b50829750879550505050505092915050565b5f819050919050565b610ef181610edf565b82525050565b5f8115159050919050565b610f0b81610ef7565b82525050565b5f608083015f8301518482035f860152610f2b8282610dec565b91505060208301518482036020860152610f458282610e6c565b9150506040830151610f5a6040860182610ee8565b506060830151610f6d6060860182610f02565b508091505092915050565b5f6020820190508181035f830152610f908184610f11565b905092915050565b610fa181610ef7565b8114610fab575f5ffd5b50565b5f81359050610fbc81610f98565b92915050565b5f5f60408385031215610fd857610fd7610d27565b5b5f610fe585828601610d75565b9250506020610ff685828601610fae565b9150509250929050565b5f81519050919050565b5f82825260208201905092915050565b5f819050602082019050919050565b61103281610d4e565b82525050565b5f6110438383611029565b60208301905092915050565b5f602082019050919050565b5f61106582611000565b61106f818561100a565b935061107a8361101a565b805f5b838110156110aa5781516110918882611038565b975061109c8361104f565b92505060018101905061107d565b5085935050505092915050565b5f81519050919050565b5f82825260208201905092915050565b5f819050602082019050919050565b5f608083015f8301518482035f8601526110fa8282610dec565b915050602083015184820360208601526111148282610e6c565b91505060408301516111296040860182610ee8565b50606083015161113c6060860182610f02565b508091505092915050565b5f61115283836110e0565b905092915050565b5f602082019050919050565b5f611170826110b7565b61117a81856110c1565b93508360208202850161118c856110d1565b805f5b858110156111c757848403895281516111a88582611147565b94506111b38361115a565b925060208a0199505060018101905061118f565b50829750879550505050505092915050565b5f6040820190508181035f8301526111f1818561105b565b905081810360208301526112058184611166565b90509392505050565b61121781610edf565b8114611221575f5ffd5b50565b5f813590506112328161120e565b92915050565b5f6020828403121561124d5761124c610d27565b5b5f61125a84828501611224565b91505092915050565b61126c81610d4e565b82525050565b5f6020820190506112855f830184611263565b92915050565b5f82825260208201905092915050565b5f6112a582610db4565b6112af818561128b565b93506112bf818560208601610dce565b6112c881610ddc565b840191505092915050565b6112dc81610edf565b82525050565b6112eb81610ef7565b82525050565b5f6060820190508181035f830152611309818661129b565b905061131860208301856112d3565b61132560408301846112e2565b949350505050565b5f5ffd5b5f5ffd5b7f4e487b71000000000000000000000000000000000000000000000000000000005f52604160045260245ffd5b61136b82610ddc565b810181811067ffffffffffffffff8211171561138a57611389611335565b5b80604052505050565b5f61139c610d1e565b90506113a88282611362565b919050565b5f67ffffffffffffffff8211156113c7576113c6611335565b5b6113d082610ddc565b9050602081019050919050565b828183375f83830152505050565b5f6113fd6113f8846113ad565b611393565b90508281526020810184848401111561141957611418611331565b5b6114248482856113dd565b509392505050565b5f82601f8301126114405761143f61132d565b5b81356114508482602086016113eb565b91505092915050565b5f67ffffffffffffffff82111561147357611472611335565b5b602082029050602081019050919050565b5f5ffd5b5f61149a61149584611459565b611393565b905080838252602082019050602084028301858111156114bd576114bc611484565b5b835b8181101561150457803567ffffffffffffffff8111156114e2576114e161132d565b5b8086016114ef898261142c565b855260208501945050506020810190506114bf565b5050509392505050565b5f82601f8301126115225761152161132d565b5b8135611532848260208601611488565b91505092915050565b5f5f6040838503121561155157611550610d27565b5b5f83013567ffffffffffffffff81111561156e5761156d610d2b565b5b61157a8582860161142c565b925050602083013567ffffffffffffffff81111561159b5761159a610d2b565b5b6115a78582860161150e565b9150509250929050565b5f5f604083850312156115c7576115c6610d27565b5b5f6115d485828601610d75565b92505060206115e585828601611224565b9150509250929050565b7f4e487b71000000000000000000000000000000000000000000000000000000005f52602260045260245ffd5b5f600282049050600182168061163357607f821691505b602082108103611646576116456115ef565b5b50919050565b5f60408201905061165f5f8301856112d3565b61166c60208301846112e2565b9392505050565b7f4e487b71000000000000000000000000000000000000000000000000000000005f52603260045260245ffd5b7f4e487b71000000000000000000000000000000000000000000000000000000005f52601160045260245ffd5b5f6116d782610edf565b91507fffffffffffffffffffffffffffffffffffffffffffffffffffffffffffffffff8203611709576117086116a0565b5b600182019050919050565b7f416c7265616479207265676973746572656400000000000000000000000000005f82015250565b5f61174860128361128b565b915061175382611714565b602082019050919050565b5f6020820190508181035f8301526117758161173c565b9050919050565b5f819050815f5260205f209050919050565b5f6020601f8301049050919050565b5f82821b905092915050565b5f600883026117d87fffffffffffffffffffffffffffffffffffffffffffffffffffffffffffffffff8261179d565b6117e2868361179d565b95508019841693508086168417925050509392505050565b5f819050919050565b5f61181d61181861181384610edf565b6117fa565b610edf565b9050919050565b5f819050919050565b61183683611803565b61184a61184282611824565b8484546117a9565b825550505050565b5f5f905090565b611861611852565b61186c81848461182d565b505050565b5f5b82811015611892576118875f828401611859565b600181019050611873565b505050565b601f8211156118e557828211156118e4576118b18161177c565b6118ba8361178e565b6118c38561178e565b60208610156118d0575f90505b8083016118df82840382611871565b505050505b5b505050565b5f82821c905092915050565b5f6119055f19846008026118ea565b1980831691505092915050565b5f61191d83836118f6565b9150826002028217905092915050565b61193682610db4565b67ffffffffffffffff81111561194f5761194e611335565b5b611959825461161c565b611964828285611897565b5f60209050601f831160018114611995575f8415611983578287015190505b61198d8582611912565b8655506119f4565b601f1984166119a38661177c565b5f5b828110156119ca578489015182556001820191506020850194506020810190506119a5565b868310156119e757848901516119e3601f8916826118f6565b8355505b6001600288020188555050505b505050505050565b5f81549050919050565b5f8190506001806001038301049050919050565b5f819050815f5260205f209050919050565b611a5c7fffffffffffffffffffffffffffffffffffffffffffffffffffffffffffffffff836020036008026118ea565b815481168255505050565b611a708161177c565b611a7b838254611912565b8083555f825550505050565b602084105f8114611ae257601f841160018114611aaf57611aa88685611912565b8355611adc565b611ab88361177c565b611ad06001611ac68861178e565b0360018301611871565b611ada8785611a67565b505b50611b3c565b611aeb8561178e565b611af48561178e565b611afd8461177c565b828101601f89168015611b1857611b178160018403611a2c565b5b84841115611b2d57611b2c85850383611871565b5b60018a60020217875550505050505b5050505050565b68010000000000000000841115611b5d57611b5c611335565b5b602083105f8114611ba657602085105f8114611b8457611b7d8685611912565b8355611ba0565b8360ff1916935083611b958461177c565b556001866002020183555b50611bb0565b6001856002020182555b5050505050565b8054611bc28161161c565b80841115611bd757611bd684828486611b43565b5b80841015611bec57611beb84828486611a87565b5b50505050565b82811015611c1157611c065f828401611859565b600181019050611bf2565b505050565b611c205f82611bb7565b50565b7f4e487b71000000000000000000000000000000000000000000000000000000005f525f60045260245ffd5b5f8214611c5f57611c5e611c23565b5b611c6881611c16565b5050565b5f5b82811015611c8d57611c825f828401611c4f565b600181019050611c6e565b505050565b81831015611cc957611ca382611a06565b611cac84611a06565b611cb583611a1a565b818101611cc483850382611c6c565b505050505b505050565b68010000000000000000821115611ce857611ce7611335565b5b611cf1816119fc565b828255611cff838284611c92565b505050565b5f81519050919050565b611d18828261192d565b5050565b611d2582610e24565b611d2f8183611cce565b611d3883610e3e565b611d4183611a1a565b5f5b83811015611d7657611d5483611d04565b611d5e8184611d0e565b60208401935060018301925050600181019050611d43565b505050505050565b5f6020820190508181035f830152611d96818461129b565b90509291505056fea264697066735822122034bd91d81797c4e395b0a151200e73c0ef456263bae69762e6283391035cf39564736f6c63430008210033","linkReferences":{}},"methodIdentifiers":{"getAllActiveSolvers()":"3daa7588","getSolver(address)":"1cf8e951","register(string,string[])":"aeeb4032","setActive(address,bool)":"2ce962cf","solverAddresses(uint256)":"525079c6","solvers(address)":"57f58d98","updateReputation(address,uint256)":"f5c91a08"},"id":0}